The OP_RETURN script is:

OP_RETURN 0063036f7264010118746578742f706c61696e3b636861727365743d7574662d3801000f544f4b454e4f46544845434841494e054e454f584108323130303030303068

Breaking down the encoded data correctly:

- 0063: Length indicator for the following data.
- 036f7264: Hexadecimal representation of ASCII characters "ord".
- 0101: Possibly some identifier or version.
- 18746578742f706c61696e3b636861727365743d7574662d38: Hex representation of "text/plain;charset=utf-8".
- 0100: Unknown or reserved.
- 0f544f4b454e4f46544845434841494e054e454f584108323130303030303068: The rest is encoded data.

Decoding the corrected encoded data:

- 0f: Length of the next data block.
- 544f4b454e4f46544845434841494e054e454f584108323130303030303068: Hex representation of "TOKENOFTHECHAIN NEOXA 21000000".
P2SH Output (Contained in block OP_RETURN)
020000000108a92a9930f4e0c650d6fa7a1cee49d3c0102313eabc32a8e0539e8f73c24d13000000006b483045022100ec89ecb1187075cc4d89435bd6be099b904b8e372ae5ab5677b280384352305702204957e812feb3fad975131f035be62f533c26593c07a0f45bcf53a00e0a810e88012103cca3bdfc9c76dd24a54d13ef2f8f32a5dc99f76bb66d342449e14529556c3fb4ffffffff020000000000000000416a3f0063036f7264010118746578742f706c61696e3b636861727365743d7574662d38010008544553543737373708544553543737373708544553543737373768804a5d050000000017a914c2b791b3ce8f3a99a109d01b483ed4013a40ff268700000000

Need to distinguish identifying properties.
Raw TX on Mainnet:
{"txid":"a110613182529ac310edfefb6c0d001b59a7d2fd372a2958b7ac30a6f64e02bb","hash":"a110613182529ac310edfefb6c0d001b59a7d2fd372a2958b7ac30a6f64e02bb","version":2,"type":0,"size":268,"locktime":0,"vin":[{"txid":"b4ff6d2af1a6cf57a510c27b5629c16c6f62ca565c3690bdf3481b75b1e85a0c","vout":1,"scriptSig":{"asm":"3045022100c7c9582638219d9655ce241dabccf956a92f21bf919861c8ca29d11886a69a970220208915907cb99cbb81f2bd10b933ace33c705b95062eb3075d6e0ca29b659ae6[ALL] 03cca3bdfc9c76dd24a54d13ef2f8f32a5dc99f76bb66d342449e14529556c3fb4","hex":"483045022100c7c9582638219d9655ce241dabccf956a92f21bf919861c8ca29d11886a69a970220208915907cb99cbb81f2bd10b933ace33c705b95062eb3075d6e0ca29b659ae6012103cca3bdfc9c76dd24a54d13ef2f8f32a5dc99f76bb66d342449e14529556c3fb4"},"sequence":4294967295}],"vout":[{"value":0,"valueSat":0,"n":0,"scriptPubKey":{"asm":"OP_RETURN 0063036f7264010118746578742f706c61696e3b636861727365743d7574662d3801000f544f4b454e4f46544845434841494e054e454f584108323130303030303068","hex":"6a430063036f7264010118746578742f706c61696e3b636861727365743d7574662d3801000f544f4b454e4f46544845434841494e054e454f584108323130303030303068","type":"nulldata"}},{"value":"0.9","valueSat":90000000,"n":1,"scriptPubKey":{"asm":"OP_HASH160 c2b791b3ce8f3a99a109d01b483ed4013a40ff26 OP_EQUAL","hex":"a914c2b791b3ce8f3a99a109d01b483ed4013a40ff2687","reqSigs":1,"type":"scripthash","addresses":["rPzA857XNoqdYKUKxKdXxR6EHnReJ5ikoR"]}}],"hex":"02000000010c5ae8b1751b48f3bd90365c56ca626f6cc129567bc210a557cfa6f12a6dffb4010000006b483045022100c7c9582638219d9655ce241dabccf956a92f21bf919861c8ca29d11886a69a970220208915907cb99cbb81f2bd10b933ace33c705b95062eb3075d6e0ca29b659ae6012103cca3bdfc9c76dd24a54d13ef2f8f32a5dc99f76bb66d342449e14529556c3fb4ffffffff020000000000000000456a430063036f7264010118746578742f706c61696e3b636861727365743d7574662d3801000f544f4b454e4f46544845434841494e054e454f584108323130303030303068804a5d050000000017a914c2b791b3ce8f3a99a109d01b483ed4013a40ff268700000000","blockhash":"0000000000037cb0078da7b82cfcafad091cdabdbf1b5bafe7115f32712e3881","height":870560,"confirmations":6421,"time":1705459898,"blocktime":1705459898,"instantlock":true,"instantlock_internal":false,"chainlock":true}
## Please feel free to contribute to future ideas , as well as unique identifiers I may have missed , will upload identifiers when I can , feel free to PR to add unique identifiers meanings. ##
## TEST TestOO3.txt contains the ENVELOPE ##
